:020000040800F2
:100000000004002039840008558300085783000845
:10001000598300085B8300085D830008000000002E
:100020000000000000000000000000005F830008E6
:1000300061830008000000006383000865830008F6
:100040009D84000800000000A1840008A584000829
:10005000A9840008AD840008000000000000000032
:10006000B1840008B5840008B984000800000000CD
:1000700000000000BD840008000000000000000037
:10008000C1840008C5840008C9840008CD84000824
:10009000D1840008D5840008D9840008DD840008D4
:1000A000E1840008E5840008E9840008ED84000884
:1000B000F1840008F5840008F9840008FD84000834
:1000C0000185000805850008098500080D850008E0
:1000D0001185000815850008198500081D85000890
:1000E0002185000825850008298500082D85000840
:1000F0003185000835850008398500083D850008F0
:100100004185000845850008498500084D8500089F
:100110005185000855850008598500085D8500084F
:100120006185000865850008698500086D850008FF
:100130007185000875850008798500087D850008AF
:100140008185000885850008898500088D8500085F
:100150009185000895850008998500089D8500080F
:10016000A1850008A5850008A9850008AD850008BF
:10017000B1850008B5850008B9850008BD8500086F
:10018000C1850008C5850008C9850008CD8500081F
:10019000D1850008D5850008D9850008DD850008CF
:1001A000E1850008E5850008E9850008ED8500087F
:1001B000F1850008F5850008F9850008FD8500082F
:1001C0000186000805860008098600080D860008DB
:1001D0001186000815860008198600081D8600088B
:1001E0002186000825860008298600082D8600083B
:1001F000318600083586000800000000000000007D
:10020000398600083D8600084186000845860008BA
:10021000498600084D86000851860008558600086A
:10022000598600085D86000861860008658600081A
:10023000698600086D8600087186000875860008CA
:10024000798600087D86000881860008858600087A
:10025000898600088D86000891860008958600082A
:10026000998600089D860008A1860008A5860008DA
:10027000A9860008AD860008B1860008B58600088A
:10028000B9860008BD860008C1860008C58600083A
:10029000C9860008CD860008D1860008D5860008EA
:1002A000D9860008DD860008E1860008E58600089A
:1002B0002DE9F843050000275FF000082868400397
:1002C00071D5DFF8E49AD9F8000010F4407004000A
:1002D000002C23D0E86F10F4407084421ED0DFF869
:1002E000CC0A016851F4807101600068C00502D435
:1002F0000120070012E0D9F8000030F4407004003B
:10030000D9F8000050F48030C9F80000D9F8000096
:1003100030F48030C9F80000C9F800403800C0B29D
:1003200000283FD1E86FB0F5807F0FD101F0DCFCF1
:100330000600D9F80000800708D401F0D5FC801B26
:1003400041F289318842F4D3032007003800C0B25B
:10035000002825D1E86F10F47C3F0CD0DFF8500A5C
:10036000016831F47C51EA6FDFF8483A13EA12135E
:100370001943016005E0DFF8380A016831F47C5167
:100380000160D9F80000E96F11F440710843C9F821
:100390000000D9F8000050F40040C9F8000002E065
:1003A000B84600E0B8462878C00728D56868002815
:1003B00005D002280BD003D303280FD00FE010E0A4
:1003C000DFF8F409016851F04001016009E0DFF84D
:1003D000E809016851F48021016002E001E0012098
:1003E00007003800C0B2002808D1DFF8D0190A6829
:1003F00092089200686802430A6000E0B8462878D4
:10040000800726D5A868002804D0102803D020280B
:1004100008D00EE00FE0DFF8A009016851F40021D8
:10042000016008E0DFF89009016851F48011016073
:1004300001E0012007003800C0B2002808D1DFF831
:100440007C190A6832F03002A86802430A6000E0B2
:10045000B8462878400726D5E868002804D0402808
:1004600003D0802808D00EE00FE0DFF84C090168C7
:1004700051F40021016008E0DFF83C09016851F403
:100480008011016001E0012007003800C0B200289F
:1004900008D1DFF828190A6832F0C002E868024380
:1004A0000A6000E0B8462878000707D5DFF80C1985
:1004B0000A6832F04052286902430A6028688002C4
:1004C00023D5686D002802D0042807D00DE0DFF89E
:1004D000E808016851F40021016008E0DFF8D8085D
:1004E000016851F48011016001E00120070038002B
:1004F000C0B2002808D1DFF8C4180A6832F004023C
:10050000686D02430A6000E0B8462878C00628D526
:100510006869002806D0B0F1807F0AD0B0F1007F72
:100520000ED00EE0DFF89008016851F480310160D0
:1005300009E0DFF88408016851F00051016002E031
:1005400001E0012007003800C0B2002808D1DFF820
:100550006C180A6832F04072686902430A6000E071
:10056000B8462878800631D5A86900281DD0B0F596
:10057000801F0CD0B0F5001F10D0B0F5401F14D074
:10058000B0F5800F11D0B0F5A00F0ED00EE0DFF85F
:100590002808016851F48031016009E0DFF818088B
:1005A000016851F00061016002E001E001200700F4
:1005B0003800C0B2002808D1DFF800180A6832F409
:1005C000E002A86902430A6000E0B84628784006C5
:1005D00007D5DFF8EC170A6832F04052E8690243A9
:1005E0000A602878000607D5DFF8D0170A6832F4C9
:1005F0004032286A02430A602868C0051ED5686A2E
:10060000002803D0B0F5802F01D007E008E0DFF824
:10061000A807016851F08041016001E00120070056
:100620003800C0B2002808D1DFF890170A6832F409
:100630008022686A02430A6000E0B84628688005A4
:1006400028D5A86A002814D0B0F5800F03D0B0F5E3
:10065000000F07D00EE0DFF86007016851F040019D
:10066000016009E0DFF85007016851F48031016052
:1006700002E001E0012007003800C0B2002808D1E4
:10068000DFF83C170A6832F44002A86A02430A60A5
:1006900000E0B8462868000524D5E86A002810D094
:1006A000B0F5805F06D0B0F5005F0AD0B0F5405FCE
:1006B00007D007E0DFF80007016851F00051016042
:1006C00002E001E0012007003800C0B2002808D194
:1006D000DFF8EC160A6832F44052E86A02430A6016
:1006E00000E0B8462868400524D5286B002810D0C3
:1006F000B0F5807F06D0B0F5007F0AD0B0F5407F1E
:1007000007D007E0DFF8B006016851F00051016042
:1007100002E001E0012007003800C0B2002808D143
:10072000DFF89C160A6832F44072286B02430A60B4
:1007300000E0B8462868C00434D5686B00280FD0A4
:10074000B0F5803F0DD0B0F5003F11D0B0F5403F7F
:1007500015D0B0F5802F13D0B0F5A02F11D011E037
:1007600012E0DFF85406016851F4803101600BE0BB
:10077000DFF84406016851F00051016004E003E035
:1007800002E001E0012007003800C0B2002808D1D3
:10079000DFF82C160A6832F4E022686B02430A6024
:1007A00000E0B8462868800434D5A86B00280FD034
:1007B000B0F5807F0DD0B0F5007F11D0B0F5407F4F
:1007C00015D0B0F5806F13D0B0F5A06F11D011E047
:1007D00012E0DFF8E405016851F4803101600BE0BC
:1007E000DFF8D405016851F00051016004E003E036
:1007F00002E001E0012007003800C0B2002808D163
:10080000DFF8C0150A6832F4E062A86B02430A60A0
:1008100000E0B8462868400434D5E86B00280FD0C3
:10082000B0F5805F0DD0B0F5005F11D0B0F5405F3E
:1008300015D0B0F5804F13D0B0F5A04F11D011E016
:1008400012E0DFF87405016851F4803101600BE0BB
:10085000DFF86405016851F00051016004E003E035
:1008600002E001E0012007003800C0B2002808D1F2
:10087000DFF850150A6832F4E042E86B02430A6080
:1008800000E0B846286800042DD5286C002808D060
:1008900002280ED006D3042813D011D3052811D076
:1008A00011E012E0DFF81005016851F40031016039
:1008B0000BE0DFF80405016851F08051016004E0AD
:1008C00003E002E001E0012007003800C0B2002888
:1008D00008D1DFF8F0140A68D208D200286C02436D
:1008E0000A6000E0B8462868C00305D5DFF8C804F0
:1008F000016851F000510160286880031ED5A86C82
:10090000002803D0B0F1006F07D007E0DFF8A8049B
:10091000016851F00051016002E001E00120070090
:100920003800C0B2002808D1DFF890140A6832F00D
:100930000062A86C02430A6000E0B8462868000321
:1009400036D5E86C00280CD0B0F5803F10D0B0F55B
:10095000003F14D0B0F5403F18D0B0F5802F16D02E
:1009600016E0DFF85404016851F04001016011E025
:10097000DFF84404016851F4803101600AE0DFF8D7
:100980003804016851F00061016003E002E001E019
:10099000012007003800C0B2002808D1DFF8281471
:1009A0000A6832F4E022E86C02430A6000E0B846CC
:1009B0002868C0023AD5286D00280FD0B0F5801FF6
:1009C00013D0B0F5001F17D0B0F5401F1BD0B0F505
:1009D000800F19D0B0F5A00F17D017E0DFF8D803BB
:1009E000016851F04001016012E0DFF8CC030168BA
:1009F00051F4803101600BE0DFF8BC03016851F075
:100A00000061016004E003E002E001E00120070072
:100A10003800C0B2002808D1DFF8AC130A6832F4FD
:100A2000E002286D02430A6000E0B84628684002F0
:100A300032D5A86E002809D0B0F1807F0DD0B0F17A
:100A4000007F11D0B0F1407F15D015E0DFF86803CA
:100A5000016851F04001016010E0DFF85C030168BB
:100A600051F48021016009E0DFF84C03016851F086
:100A70000051016002E001E0012007003800C0B22F
:100A8000002808D1DFF838130A6832F04072A86EE7
:100A900002430A6000E0B8462868000236D5A86D17
:100AA00000280CD0B0F5807F10D0B0F5007F14D0B6
:100AB000B0F5407F18D0B0F5806F16D016E0DFF8A3
:100AC000F802016851F04001016011E0DFF8E8022E
:100AD000016851F4803101600AE0DFF8DC0201684E
:100AE00051F00061016003E002E001E00120070035
:100AF0003800C0B2002808D1DFF8CC120A6832F4FE
:100B0000E062A86D02430A6000E0B8462868C001B0
:100B10002FD5E86D002808D010280CD0202810D040
:100B2000302814D0402813D013E0A348016851F0B6
:100B3000400101600FE0A048016851F4803101607C
:100B400009E09D48016851F00061016003E002E0A6
:100B500001E0012007003800C0B2002808D1DFF80A
:100B600060120A6832F07002E86D02430A6000E029
:100B7000B846286880012DD5286E00280AD0102894
:100B800009D020280DD0302811D0402810D050286E
:100B90000FD00FE010E08848016851F40031016087
:100BA0000AE08548016851F08051016004E003E0EB
:100BB00002E001E0012007003800C0B2002808D19F
:100BC000DFF804120A6832F07002286E02430A60ED
:100BD00000E0B846286840012CD5686E00280AD08D
:100BE000102809D020280DD0302811D0402810D04E
:100BF00050280FD00FE010E06F48016851F4003129
:100C000001600AE06C48016851F08051016004E025
:100C100003E002E001E0012007003800C0B2002834
:100C200007D168490A6832F07002686E02430A60B0
:100C300000E0B8462868C0002AD5E86E002808D031
:100C400002280DD006D3042811D00FD305280FD0C9
:100C50000FE010E05848016851F4003101600AE0EB
:100C60005548016851F08051016004E003E002E062
:100C700001E0012007003800C0B2002807D1524926
:100C80000A68D208D200E86E02430A6000E0B84663
:100C9000286880002AD5286F002808D002280DD0A7
:100CA00006D3042811D00FD305280FD00FE010E091
:100CB0004148016851F4003101600AE03E48016892
:100CC00051F08051016004E003E002E001E0012006
:100CD00007003800C0B2002807D139490A68D20895
:100CE000D200286F02430A6000E0B846286840003E
:100CF0001ED5686F00280BD0B0F5805F08D0B0F526
:100D0000005F06D12C48016851F08051016002E07B
:100D100001E0012007003800C0B2002807D12749B0
:100D20000A6832F44052686F02430A6000E0B84635
:100D30002868002822D5A86F00280FD0B0F5804F72
:100D400006D0B0F5004F09D0B0F5404F06D006E010
:100D50001948016851F08051016002E001E0012072
:100D600007003800C0B2002807D114490A6832F4DD
:100D70004042A86F02430A6000E0B84628680001BC
:100D800009D50B49086830F4004008600A68D5F8B6
:100D9000800002430A604046C0B2002801D1002012
:100DA00000E00120BDE8F283704402580048025878
:100DB00010440258CFFFFF0F2C4402584C440258F5
:100DC0005044025858440258544402582DE9F04106
:100DD00007005FF000083800012872D0022800F0F8
:100DE000A780042800F0CC80082800F0F1801028AB
:100DF00000F02281202800F04981402800F09681EF
:100E0000802800F0C081B0F5807F00F0F781B0F558
:100E1000007F00F01582B0F5806F00F03F82B0F5E2
:100E2000006F00F07782B0F5805F00F0AF82B0F520
:100E3000005F00F0F482B0F5804F00F03883B0F529
:100E4000004F00F07C83B0F5803F00F0C483B0F524
:100E5000003F00F0CA83B0F5802F00F0E283B0F5C8
:100E6000002F00F02684B0F5801F00F05E84B0F5FE
:100E7000001F00F09784B0F5800F00F0AC84B0F54F
:100E8000000F00F0E484B0F1807F00F01985B0F12C
:100E9000007F00F04C85B0F1806F00F08F85B0F1DD
:100EA000805F00F0DE85B0F1005F00F02486B0F1D5
:100EB000804F00F06F86B0F1004F00F0988600F090
:100EC000C8BEDFF8200A006810F003000400002C00
:100ED00005D0022C10D006D3032C17D026E001F049
:100EE000DFFB804622E0DFF8FC0A0068400602D5FE
:100EF00001F018FC804619E0DFF8E80A0068C00A33
:100F0000000602D501F038FC80460FE0DFF8D80A71
:100F10000168490709D50168890606D5DFF8CC1AAA
:100F20000068C0F3C100C1408846FFE700F091BEF1
:100F3000DFF8B009006810F030000400200000283D
:100F400004D0102806D020280ED017E001F0A8FB0E
:100F5000804613E0DFF88C0A0068C00AC00502D59D
:100F600001F01CFC804609E0DFF8780A0068C00A3E
:100F7000800502D501F01EFC8046FFE700F069BE47
:100F8000DFF86009006810F0C000040020000028AD
:100F900004D0402806D080280ED017E001F080FB56
:100FA000804613E0DFF83C0A0068C00AC00502D59D
:100FB00001F0F4FB804609E0DFF8280A0068C00A67
:100FC000800502D501F0F6FB8046FFE700F041BE48
:100FD000DFF81009006810F04050040020000028DD
:100FE00006D0B0F1805F13D0B0F1005F19D021E0DE
:100FF000DFF8F4090168490709D50168890606D5B3
:10100000DFF8E8190068C0F3C100C140884611E06C
:10101000DFF8D4090068C00502D5DFF8FC0A804675
:1010200008E0DFF8C4090068800302D5DFF8EC0AA5
:101030008046FFE700F00DBEDFF8A808006810F05A
:10104000407004002000002806D0B0F1807F0DD051
:10105000B0F1007F14D017E0DFF888090068C00AFB
:10106000800602D501F06EFB80460DE0DFF87409C2
:101070000068800D000602D501F0C6FB804603E043
:1010800000F0F2FD8046FFE700F0E3BDDFF8540812
:10109000006810F4E0000400200000280FD0B0F534
:1010A000801F10D0B0F5001F17D0B0F5401F1ED024
:1010B000B0F5800F1FD0B0F5A00F25D034E001F0BF
:1010C000EFFA804630E0DFF81C090068C00A8006AD
:1010D00002D501F037FB804626E0DFF808090068FA
:1010E000800D800602D501F073FB80461CE04BF6B4
:1010F0008030804618E0DFF8F0080068C00502D5AF
:10110000DFF8140A80460FE0DFF8DC0801684907C1
:1011100009D50168890606D5DFF8D0180068C0F344
:10112000C100C1408846FFE700F093BDDFF8E40A44
:10113000006810F0405004002000002806D0B0F1F4
:10114000805F0CD0B0F1005F12D01AE0DFF8E80A3F
:101150000068800702D54FF40040804611E0DFF8B8
:10116000DC0A0068800702D54FF4FA40804608E0A8
:10117000DFF874080068C00502D5DFF89C098046D6
:10118000FFE700F066BDDFF85C07016811F440314D
:101190000C002100002906D0B1F5803F04D0B1F544
:1011A000003F0AD028E027E0DFF83C080068800311
:1011B00002D5DFF8680980461EE0006810F4802040
:1011C00005002800002803D0B0F5802F09D012E0D8
:1011D000DFF814080068800302D5DFF84009804674
:1011E00009E0DFF800080068800DC00502D501F0B5
:1011F00017FB8046FFE7FFE700F02BBDDFF8E406B2
:10120000006810F4802004002000002803D0B0F50E
:10121000802F09D012E0DFF8D0070068800302D5E4
:10122000DFF8F808804609E0DFF8B8070068800DAD
:10123000C00502D501F0F4FA8046FFE700F009BDD1
:10124000DFF8D009006810F44000040020000028F6
:1012500006D0B0F5800F0CD0B0F5000F12D01BE017
:10126000DFF884070068800302D5DFF8B008804605
:1012700012E0DFF870070068400602D501F052FA6C
:10128000804609E0DFF85C070068C00A800602D5E6
:1012900001F058FA8046FFE700F0DBBCDFF8740984
:1012A000006810F4407004002000002809D0B0F558
:1012B000807F0AD0B0F5007F11D0B0F5407F1ED0FE
:1012C00026E001F003FA804622E0DFF81807006804
:1012D000800D000602D501F097FA804618E0DFF88D
:1012E00008070168490709D50168890606D5DFF8AE
:1012F000FC160068C0F3C100C140884608E0DFF872
:10130000E8060068C00502D5DFF80C088046FFE754
:1013100000F09FBCDFF8FC08006810F440500400A7
:101320002000002809D0B0F5805F0AD0B0F5005F3A
:1013300011D0B0F5405F1ED026E001F0C7F980461D
:1013400022E0DFF8A0060068800D000602D501F05B
:101350005BFA804618E0DFF890060168490709D576
:101360000168890606D5DFF884160068C0F3C1005D
:10137000C140884608E0DFF870060068C00502D565
:10138000DFF894078046FFE700F063BCDFF88408CD
:10139000006810F4E0200400200000280FD0B0F511
:1013A000803F10D0B0F5003F17D0B0F5403F1ED0C1
:1013B000B0F5802F24D0B0F5A02F2AD02DE001F079
:1013C00085F9804629E0DFF81C060068C00A80061F
:1013D00002D501F0B7F980461FE0DFF80806006883
:1013E000800D000602D501F00FFA804615E0DFF807
:1013F00048080068800702D54FF4004080460CE0A2
:10140000DFF838080068800702D54FF4FA408046BC
:1014100003E000F029FC8046FFE700F01ABCDFF88B
:101420004408006810F4E0600400200000280FD099
:10143000B0F5807F10D0B0F5007F17D0B0F5407FB9
:101440001ED0B0F5806F24D0B0F5A06F2AD02DE06B
:1014500001F05AF9804629E0DFF888050068C00AE3
:10146000800602D501F06EF980461FE0DFF87405B2
:101470000068800D000602D501F0C6F9804615E02F
:10148000DFF8B4070068800702D54FF400408046BB
:101490000CE0DFF8A8070068800702D54FF4FA4097
:1014A000804603E000F0E0FB8046FFE7D1E3DFF891
:1014B000B407006810F4E0400400200000280FD0BA
:1014C000B0F5805F10D0B0F5005F17D0B0F5405F89
:1014D0001ED0B0F5804F24D0B0F5A04F2AD02DE01B
:1014E00001F012F9804629E0DFF8F8040068C00A2C
:1014F000800602D501F026F980461FE0DFF8E404FB
:101500000068800D000602D501F07EF9804615E0E6
:10151000DFF824070068800702D54FF400408046BA
:101520000CE0DFF818070068800702D54FF4FA4096
:10153000804603E000F098FB8046FFE789E3DFF890
:101540002407006810F007000400002C08D0022CCB
:1015500014D009D3042C2BD01AD3052C31D039E068
:1015600001F0D2F8804635E0DFF878040068C00A60
:10157000400602D501F0F4F880462BE0DFF8640461
:101580000068800D400602D501F030F9804621E068
:10159000DFF854040168490709D50168890606D5B2
:1015A000DFF848140068C0F3C100C140884611E06C
:1015B000DFF834040068C00502D5DFF85C0580461A
:1015C00008E0DFF874060068800702D54FF4004099
:1015D0008046FFE73DE3DFF80C040068800D00065D
:1015E00002D501F011F9804633E3DFF8F802006814
:1015F00010F0006004002000002803D0B0F1006F5C
:101600000AD00DE0DFF8DC030068800D000602D58B
:1016100001F0FAF8804603E000F026FB8046FFE781
:1016200017E3DFF81406016811F44071B1F5407F4B
:1016300008D1DFF888160C68240114F47C3454F4C3
:10164000407402E0046814F440742100002906D0BC
:10165000B1F5807F04D0B1F5007F08D010E027E01D
:101660000068800702D54FF40040804620E0DFF894
:10167000CC050068800702D54FF4FA40804617E099
:10168000006810F44070B0F5407F11D1DFF85803C6
:10169000006880030CD5DFF824060068C0F305203D
:1016A0000600022E04D3DFF87404B0FBF6F0804687
:1016B000CFE2DFF80C06006810F4E0200400200000
:1016C00000280CD0B0F5803F12D0B0F5003F19D003
:1016D000B0F5403F24D0B0F5802F1DD024E0DFF8D6
:1016E00004030068400602D501F01CF880461BE0A8
:1016F000DFF8F0020068C00A800602D501F022F887
:10170000804611E0DFF8DC020068800D800602D51B
:1017100001F05EF8804607E000F0A6FA804603E09C
:101720004BF680308046FFE793E2DFF894050068CF
:1017300010F4E0000400200000280FD0B0F5801F56
:1017400014D0B0F5001F1AD0B0F5401F25D0B0F569
:10175000800F1DD0B0F5A00F1ED022E0A148006878
:10176000400602D500F0DEFF80461AE09D48006882
:10177000C00A800602D500F0E5FF804611E09948D6
:101780000068800D800602D501F022F8804608E04E
:1017900000F06AFA804604E003E04BF680308046B1
:1017A000FFE756E24F48006810F004000400002CE8
:1017B00008D18C480068C00AC0050BD500F0EEFFC8
:1017C000804607E087480068C00A800502D500F01F
:1017D000F1FF80463DE2DFF83C04006810F0407005
:1017E00004002000002809D0B0F1807F0ED0B0F1B5
:1017F000007F14D0B0F1407F1AD027E0794800680C
:10180000400602D500F08EFF80461FE07548006854
:10181000C00A000602D500F0AFFF804616E071480E
:101820000068800D000602D500F0EEFF80460DE056
:101830006D480168490708D50168890605D56B49D7
:101840000068C0F3C100C1408846FFE701E2DFF84D
:101850007004006810F4E0600400200000280CD040
:10186000B0F5807F11D0B0F5007F17D0B0F5407F84
:1018700021D0B0F5806F1AD021E05A4800684006A8
:1018800002D500F04FFF804619E056480068C00AB4
:10189000800602D500F056FF804610E051480068EF
:1018A000800D800602D500F093FF804607E000F02F
:1018B000DBF9804603E04BF680308046FFE7C8E165
:1018C000DFF85003006810F07000040020000028CA
:1018D0000AD0102810D0202817D0302822D0402835
:1018E0001CD023E04C4402583E480068400602D514
:1018F00000F018FF804619E03A480068C00A8006E8
:1019000002D500F01FFF804610E036480068800DC9
:10191000800602D500F05CFF804607E000F0A4F9E5
:10192000804603E04BF680308046FFE791E1DFF828
:101930009003006810F070000400200000280AD016
:1019400010280CD0202813D030281AD0402826D0B8
:1019500050282BD031E000F0C7FE80462DE0214812
:101960000068C00A400602D500F0FAFE804624E076
:101970001C480068800D400602D500F037FF804605
:101980001BE019480168490708D50168890605D593
:1019900016490068C0F3C100C14088460DE01248F6
:1019A0000068C00501D55C48804606E00E48006826
:1019B000800301D559488046FFE74AE1DFF8A402D9
:1019C000006810F0700004002000002810D01028DB
:1019D00012D020281AD0302822D0402830D05028C9
:1019E00036D03DE02C440258004402580090D00309
:1019F00000F08AFE804633E0DFF8C8020068C00AC3
:101A0000400602D500F0ACFE804629E0DFF8B402C3
:101A10000068800D400602D500F0E8FE80461FE019
:101A2000DFF8A4020168490709D50168890606D5CF
:101A3000DFF898120068C0F3C100C14088460FE08B
:101A4000DFF884020068C00501D53348804607E00E
:101A5000DFF874020068800301D530488046FFE754
:101A6000F7E0DFF85C02006810F007000400002CCB
:101A700008D0022C14D009D3042C2BD01AD3052C57
:101A800030D037E000F030FE804633E0DFF834023B
:101A90000068C00A400602D500F062FE804629E0D8
:101AA000DFF820020068800D400602D500F09EFE9F
:101AB00080461FE0DFF810020168490709D5016878
:101AC000890606D5DFF804120068C0F3C100C140E2
:101AD00088460FE0DFF8F0010068C00501D50E4828
:101AE000804607E054480068800702D54FF4004064
:101AF0008046FFE7ADE04748006810F007000400AB
:101B0000002C0DD0022C19D00ED3042C30D01FD3B2
:101B1000052C36D03DE000BF00093D0000366E01C7
:101B200000F0D4FD804634E0DFF898010068C00A78
:101B3000400602D500F014FE80462AE0DFF884015A
:101B40000068800D400602D500F050FE804620E07F
:101B5000DFF874010168490709D50168890606D5CF
:101B6000DFF868110068C0F3C100C140884610E08A
:101B7000DFF854010068C00502D5DFF85401804643
:101B800007E02D480068800702D54FF400408046EA
:101B9000FFE75EE0DFF83C01006810F4405004000D
:101BA0002000002806D0B0F5805F0CD0B0F5005FB3
:101BB00012D01BE0DFF810010068800302D5DFF8C7
:101BC0001801804612E0DFF800010068800302D5AA
:101BD000DFF80801804609E0DFF8E8000068800DC2
:101BE000400602D500F002FE8046FFE731E0DFF854
:101BF000E400006810F440400400200000280BD0EE
:101C0000B0F5804F0FD0B0F5004F19D0B0F5404F70
:101C10001DD01DE0504402582B480068800401D5B7
:101C20002F48804614E027480068800D400602D502
:101C300000F0DCFD80460BE070440258744402580A
:101C400021480068800301D52348804600E0FFE773
:101C5000FFE74046BDE8F08122490A6802430A6076
:101C6000704700005844025800201A49096811F0D2
:101C7000405100290DD1144A13685B071CD5136825
:101C80009B0619D5114B1268C2F3C102D34018004C
:101C900012E0B1F1805F06D10B4A1268D2050BD574
:101CA0000B4A100008E0B1F1005F05D1064A126846
:101CB000920301D5084A10007047000010440258F2
:101CC000544402582C440258004402580090D00357
:101CD00000093D004C44025800366E01001BB7005D
:101CE000006CDC020045025801480068704700BFE4
:101CF000800400242DE9F84F0700002F01D10120B6
:101D0000A0E2DFF89409066816F03806DFF82C0A1E
:101D1000056815F00305DFF884A7DAF8004014F031
:101D200028543878C00740F18B80102E03D0002C47
:101D300007D0022D05D17868002840F0818001206D
:101D400080E27868B0F5803F06D1DAF8000050F400
:101D50008030CAF8000055E07868002812D1DAF81F
:101D6000000030F48030CAF80000DAF8000030F4E7
:101D70000020CAF80000DAF8000030F48020CAF829
:101D800000003FE07868B0F5A02F12D1DAF800002B
:101D900050F48020CAF80000DAF8000030F4002087
:101DA000CAF80000DAF8000050F48030CAF80000E9
:101DB00028E07868B0F5502F12D1DAF8000050F41E
:101DC0008020CAF80000DAF8000050F40020CAF8B9
:101DD0000000DAF8000050F48030CAF8000011E08A
:101DE000DAF8000030F48030CAF80000DAF80000B9
:101DF00030F48020CAF80000DAF8000030F4002047
:101E0000CAF80000FFF770FF8046786800280BD002
:101E1000DAF80000800313D4FFF766FFB0EB080088
:101E20006528F5D303200DE2DAF80000800307D51A
:101E3000FFF75AFFB0EB08006528F5D3032001E255
:101E40003878800740F18580002E03D0002C40D0E8
:101E5000002D3ED1F868002801D10120F2E1DAF826
:101E6000000010F018008146002D06D1002C04D08F
:101E70003869814501D00120E4E1DAF8001031F041
:101E800019013869014351F00101CAF80010002E10
:101E90000CD1DFF808180122DAF80000C0F3C10005
:101EA0008240B1FBF2F0DFF8FC150860DFF8F805BE
:101EB000006800F099FE002801D00120C2E1DFF89F
:101EC000E005016831F0FE417A6951EA0261016082
:101ED0003FE0F868002827D0002D03D1002C01D066
:101EE0000120AFE1DAF8001031F01901F868014380
:101EF00038690143CAF80010DFF8A405016831F021
:101F0000FE417A6951EA02610160FFF7EDFE804609
:101F1000DAF8000040071CD4FFF7E6FEB0EB08003B
:101F20000228F5D303208DE1DAF8000040084000D4
:101F3000CAF80000FFF7D8FE8046DAF80000400734
:101F400007D5FFF7D1FEB0EB08000228F5D3032038
:101F500078E13878C00637D5082E03D0002C06D09B
:101F6000012D04D1386A00282ED101206AE1386A97
:101F7000002814D0DAF8000050F08000CAF8000001
:101F8000FFF7B2FE8046DAF80000C0051CD4FFF768
:101F9000ABFEB0EB08000228F5D3032052E1DAF8DB
:101FA000000030F08000CAF80000FFF79DFE804678
:101FB000DAF80000C00507D5FFF796FEB0EB080081
:101FC0000228F5D303203DE13878000730D5B86901
:101FD000002816D0DFF868B8DBF8000050F00100E8
:101FE000CBF80000FFF780FE8046DBF8000080079A
:101FF0001ED4FFF779FEB0EB08000228F5D30320CA
:1020000020E1DFF83CB8DBF8000040084000CBF8E6
:102010000000FFF769FE8046DBF80000800707D567
:10202000FFF762FEB0EB08000228F5D3032009E1B8
:10203000387880062CD5F869002814D0DAF800002A
:1020400050F48050CAF80000FFF74EFE8046DAF8E0
:10205000000080041CD4FFF747FEB0EB0800022804
:10206000F5D30320EEE0DAF8000030F48050CAF82F
:102070000000FFF739FE8046DAF80000800407D53B
:10208000FFF732FEB0EB08000228F5D30320D9E0B9
:10209000387840077AD5DFF8AC07016851F48071D1
:1020A0000160B868012806D1DFF89C07016851F08B
:1020B0000101016043E0B86800280ED1DFF888070D
:1020C0000168490849000160016831F08001016040
:1020D000016831F00401016031E0B86805280ED1D3
:1020E000DFF86407016851F004010160016831F014
:1020F00080010160016851F0010101601FE0B868D2
:1021000085280ED1DFF84007016851F00401016015
:10211000016851F080010160016851F00101016026
:102120000DE0DFF8240701684908490001600168F3
:1021300031F004010160016831F080010160B8688C
:10214000002811D0FFF7D0FD8046DFF8FC060068BC
:1021500080071BD4FFF7C8FDB0EB080041F28931BE
:102160008842F2D303206DE0FFF7BEFD8046DFF822
:10217000D8060068800709D5FFF7B6FDB0EB080068
:1021800041F289318842F2D303205BE0786A00286B
:102190003CD0182E2FD1786A012801D1012051E0BE
:1021A000DFF8B8A5DAF80000C0F3CC008146B86CBF
:1021B00048452BD0DFF888B5DBF800004008400028
:1021C000CBF80000FFF790FD8046FFF78DFDB0EBE8
:1021D00008000028F9D0DAF800006FF3CF00B96CDE
:1021E00050EAC100CAF80000DBF8000050F001001E
:1021F000CBF800000AE00120786417F124010020E8
:1022000000F024FB002801D001201BE0F86C00281E
:1022100008D017F14C01012000F018FB002801D074
:1022200001200FE0786F00280BD00120C7F8940040
:1022300017F17401022000F009FB002801D00120F1
:1022400000E00020BDE8F28F2DE9F04104000D0010
:10225000002C01D101201EE1944F386810F03F009E
:10226000A8420BD23868800980012843386038685A
:1022700010F03F00A84201D001200CE12078400777
:102280000DD5DFF88014086810F00700226990422D
:1022900005D20A68D208D200206902430A60207879
:1022A00000070DD5DFF85C14086810F07000626953
:1022B000904205D20A6832F07002606902430A60F7
:1022C0002078C0060DD5DFF83C14086810F4E060F3
:1022D000A269904205D20A6832F4E062A069024322
:1022E0000A60207880060DD5DFF81814086810F40D
:1022F000E040E269904205D20A6832F4E042E069C7
:1023000002430A60207880070DD5DFF8881408683A
:1023100010F00F00E268904205D20A68120912011B
:10232000E06802430A602078C00746D5DFF86014F1
:102330000A6812091201A06802430A606068022854
:1023400005D156480068800319D40120A3E06068D5
:10235000032805D151480068800110D401209AE07B
:102360006068012805D14D480068C00507D40120E8
:1023700091E04A480068400701D401208BE0DFF873
:102380001883D8F80010C908C90060680143C8F86C
:102390000010FFF7A9FC0600D8F8000010F0380084
:1023A0006168B0EBC10F08D0FFF79EFC801B41F2C3
:1023B00089318842F0D303206DE0207880070DD565
:1023C000DFF8D013E0680A6812F00F02904205D2DD
:1023D0000A6812091201E06802430A60386810F0C6
:1023E0003F0085420BD2386880098001284338605D
:1023F000386810F03F00A84201D001204BE020785F
:1024000040070DD5DFF8FC1220690A6812F00702B8
:10241000904205D20A68D208D200206902430A60BD
:10242000207800070DD5DFF8DC1260690A6812F029
:102430007002904205D20A6832F07002606902436D
:102440000A602078C0060DD5DFF8B812A0690A68C6
:1024500012F4E062904205D20A6832F4E062A069A8
:1024600002430A60207880060CD5A649E0690A6814
:1024700012F4E042904205D20A6832F4E042E06988
:1024800002430A6000F014F8064908600648006834
:1024900000F0AAFBC0B2BDE8F08100000044025881
:1024A000044402584401002440010024002000524A
:1024B00030B47948006810F03800002806D00828A9
:1024C00011D0102812D0182813D0D7E0DFF8C84652
:1024D0002068800605D571482468C4F3C104E04033
:1024E00000E00020CCE0DFF8B406C9E0DFF8B00679
:1024F000C6E09248046814F0030422000068C0F3A8
:10250000051001008E48006810F001000300934898
:102510000068C0F3CC0000FB03F002EE100AB8EE36
:10252000422AB0EE421A002900F0A680002A03D009
:10253000022A52D032D36FE0DFF85C060468A406AA
:1025400027D5BE4C0068C0F3C100C44002EE104A5B
:10255000F0EE420AB8EE602A02EE901AF8EE622A15
:1025600082EE222A8C480068C005C00D02EE900A57
:10257000F8EE622A9FED953A81EE033A72EE832AD5
:10258000B7EE003A72EE832A22EE222AF0EE421AC9
:1025900003E09FED952AF0EE421A5BE002EE101A7E
:1025A000B8EE422ADFED972A82EE822A7A48006846
:1025B000C005C00D02EE900AF8EE622A9FED833A44
:1025C00081EE033A72EE832AB7EE003A72EE832A66
:1025D00022EE222AF0EE421A3CE002EE101AB8EE89
:1025E000422ADFED952A82EE822A6B480068C005F8
:1025F000C00D02EE900AF8EE622A9FED743A81EE69
:10260000033A72EE832AB7EE003A72EE832A22EE84
:10261000222AF0EE421A1DE002EE101AB8EE422A0B
:10262000DFED782A82EE822A5B480068C005C00D83
:1026300002EE900AF8EE622A9FED643A81EE033AC8
:1026400072EE832AB7EE003A72EE832A22EE222A35
:10265000F0EE421A50480068C0F34620401C02EEDB
:10266000100AB0EE420AB8EE402A81EE822ABCEE91
:10267000C22A12EE100A00E0002001E0DFF81C057B
:10268000434C246814F00F04082C02D314F1F9050C
:10269000E84030BC70470000104402580090D0035E
:1026A000E0B56846DFF8FC14D1E90023C0E9002357
:1026B000FFF7FEFE3749096811F00F01082904D31E
:1026C0006A460A4412F8082CD0400EBD80B5FFF7C8
:1026D000E7FFDFF8D414096811F00701042902D3D9
:1026E00011F1FD02D04002BD80B5FFF7D9FFDFF840
:1026F000B8140968C1F30211042902D311F1FD02D3
:10270000D04002BD2044025880B5FFF7C9FFDFF872
:1027100098140968C1F30221042902D311F1FD02C2
:10272000D04002BD10B5DFF884040068C0F3064451
:10273000641C00F089F9B0FBF4F010BD2844025885
:102740002C44025810B5DFF86C040068C0F346242E
:10275000641C00F0B1F9B0FBF4F010BD3444025831
:1027600010B5DFF850040068C0F30644641C00F0A4
:10277000A3F9B0FBF4F010BD10B5DFF83804006821
:10278000C0F30664641C00F097F9B0FBF4F010BDD0
:10279000184402581C4402583044025810B5DFF85F
:1027A0001804046814F00704641C00F085F9B0FBF9
:1027B000F4F010BD10B5DFF800040068C0F3022487
:1027C000641C00F079F9B0FBF4F010BD0000004685
:1027D00010B5DFF8E8030068C0F34624641C00F07D
:1027E000A3F9B0FBF4F010BD0000000010B5DFF855
:1027F000CC030068C0F30644641C00F095F9B0FBFC
:10280000F4F010BD0024744A10B5DFF8B00300687E
:10281000C0F30664641C00F087F9B0FBF4F010BD4F
:1028200010B5DFF89C03046814F00704641C00F082
:102830007BF9B0FBF4F010BD001BB74B0090D00348
:102840007444025800480258704402582DE9F84F69
:1028500086B004000D0000208DF80000DFF84C0366
:1028600000EBC4000590DFF8480300EB84000490FF
:102870000B27DFF85483D8F800104FF4787207FB69
:1028800004F082409143C8F800105FF08079DFF8CF
:1028900008A3DAF800002100C9B2490019FA01F1D1
:1028A0008843CAF80000FFF71FFA06005FF0007BBC
:1028B000DAF800002100C9B249001BFA01F1084210
:1028C00006D0FFF711FA801B3328EFD30320B8E0BE
:1028D0002868022840F0A8806868019001980028C4
:1028E00007D1DFF8F002DAF80010C1F3C101C840E7
:1028F00005E00198022801D1A94800E0A748A9688D
:10290000B0FBF1F0B449884201D318210AE0B34981
:10291000884201D3102105E0B149884201D3082142
:1029200000E0022107FB04F081400391A5490A68F9
:102930004FF47C732000C0B2C000834053F0030307
:102940009A4301980243A868E3001B1D9840024384
:102950000A60086810F003000199884201D0012044
:102960006FE0D8F800101B2207FB04F0824091436F
:1029700003980143C8F80010E868401E2969491E01
:1029800050EA41206969491E50EA0140A969491E7F
:1029900050EA016005990860E869401E296A491EED
:1029A00050EA012004990860002C05D1D8F80000F5
:1029B00050F02000C8F80000686A002816D0894846
:1029C00000EBC4000290029800686FF3CF00696AC0
:1029D00050EAC10002990860D8F80000012107FB05
:1029E00004F711FA07F70743C8F80070DAF8001087
:1029F0002000C0B2400019FA00F959EA0109CAF8EA
:102A00000090FFF771F90600DAF800002100C9B262
:102A100049001BFA01F1084211D1FFF765F9801B4B
:102A20003328F1D303200CE0664801684FF47C7230
:102A3000E3001B1D9A40914351F0030101609DF892
:102A4000000007B0BDE8F08F70B45E4802685748D8
:102A50000368C2F30511DC05E40D641C002901D1F3
:102A6000002027E0D00704D55E480068C0F3CC05FD
:102A700000E0002512F00300002803D002280DD04A
:102A80000ED30FE0444E3068800605D551483668B5
:102A9000C6F3C106F04000E0002004E0404802E038
:102AA0003E4800E00020B0FBF1F014EB553404FB8D
:102AB00000F4200070BC704770B4424802683D4882
:102AC0000368C2F30531DC05E40D641C002901D163
:102AD000002027E0100504D53C480068C0F3CC0571
:102AE00000E0002512F00300002803D002280DD0DA
:102AF0000ED30FE0284E3068800605D5354836687D
:102B0000C6F3C106F04000E0002004E0244802E0E3
:102B1000224800E00020B0FBF1F014EB553404FB38
:102B200000F4200070BC704770B426480268234847
:102B30000368C2F30551DC05E40D641C002901D1D2
:102B4000002027E0500204D521480068C0F3CC05DE
:102B500000E0002512F00300002803D002280DD069
:102B60000ED30FE00C4E3068800605D51948366844
:102B7000C6F3C106F04000E0002004E0084802E08F
:102B8000064800E00020B0FBF1F014EB553404FBE4
:102B900000F4200070BC70470044025800093D005A
:102BA00000366E01948400082044025830440258D4
:102BB000C044025838440258C444025840440258A1
:102BC000C8440258284402582C4402583C44025835
:102BD000444402580090D00301127A0001093D00DC
:102BE00081841E003444025838B50400002513497E
:102BF000087800281DD04FF47A700978B0FBF1F006
:102C00000F490968B1FBF0F000F09CF800280DD1E5
:102C1000102C08D2002221005FF0FF3000F080F875
:102C20000848046007E00120050004E001200500D9
:102C300001E0012005002800C0B232BD800100245F
:102C4000440100244001002410B410F00703DFF811
:102C5000984122684FF6FF010A4052EA0322DFF84A
:102C60008C110A43226010BC7047DFF87C010068B9
:102C7000C0F302207047000010B4020012B2002A14
:102C800005D40A015A4B040024B21A5508E00A017F
:102C9000584B040024B214F00F04234403F8042C0E
:102CA00010BC704770B4030013F00704D4F10700A0
:102CB000052801D3042001E0D4F10700251D072DCC
:102CC00001D2002500E0E51E012616FA00F0401EA4
:102CD0000140A94016FA05F56D1E2A40114308006F
:102CE00070BC704710B50400601EB0F1807F01D346
:102CF00001200EE0601E404908600F215FF0FF30A8
:102D0000FFF7BAFF00203D49086007203C490860F2
:102D1000002010BD10B504002000FFF795FF10BD86
:102D2000F8B504000D001600FFF79FFF0700320002
:102D300029003800FFF7B6FF0100200000B2FFF7BE
:102D40009BFFF1BD10B504002000FFF7CBFF10BDC5
:102D5000BFF35F8F50F001012A4A11602A490A68C7
:102D600052F480320A60BFF34F8FBFF36F8F70470A
:102D7000BFF35F8F2448016831F480310160002087
:102D800020490860BFF34F8FBFF36F8F70474178C2
:102D90001E4A1160017800291ED041681C4A11604A
:102DA000017BC27A120652EA0172817A52EAC1426A
:102DB000417B52EA8142817B52EA4142C17B52EA25
:102DC0000142417A52EA0122017A52EA4102017833
:102DD0000A4310490A6005E000210E4A11600021F3
:102DE0000B4A1160704700000CED00E00000FA058E
:102DF00000E400E018ED00E014E000E018E000E07E
:102E000010E000E094ED00E024ED00E098ED00E03B
:102E10009CED00E0A0ED00E02DE9F14FB0B092464E
:102E200004910DF142013A9A2B9199464A70002083
:102E30000AE01AF8011B0498309A90470028049081
:102E400000F06A860D98401C0D909AF8000050B171
:102E50002528EED1002100220791089209910A92BB
:102E60000B910C9204E00D9800F058BE41F0010166
:102E70001AF8010F2028F9D023280CD02B2804D0D1
:102E80002D2805D0302809D00BE041F00201EFE7F2
:102E900041F00401ECE741F00801E9E741F01001DD
:102EA000E6E72A280FD1D9F8002052F8040BC9F818
:102EB000002000280F9003D540420F9041F00401FC
:102EC0000AF1010A14E00F92DFF8583C0AE00F986B
:102ED000984205DA00EB800402EB4402303A0F928C
:102EE0000AF1010A9AF80020A2F130000A28EED374
:102EF0009AF800002E2803D04FF0FF320E9229E0FE
:102F00001AF8010F2A2809D1D9F8000050F8042B2B
:102F1000C9F800000E920AF1010A1BE02D280CBF2F
:102F20000AF1010A002000220E92DFF8F84B0BE0B4
:102F300040B90E9AA24205DA02EB820503EB450383
:102F4000303B0E930AF1010A9AF80030A3F13002E7
:102F50000A2AEDD3ADF840100FF6CC309AF80010E5
:102F600000F00EFF08B11AF8010B8DF842009DF831
:102F70004200682805D19AF8000068280CD1622127
:102F800006E06C2804BF9AF800006C2804D1712177
:102F90008DF842100AF1010A12A806901AF801BB36
:102FA000BBF125012CD01C3900F0D681091F022964
:102FB00040F2D281133900F0E184093900F0CC816C
:102FC000891E00F07685491E00F02385491E0229DE
:102FD00040F2C281091F00F01C85491F00F03181B9
:102FE000491E00F0CB84491E00F0D880C91E0DD0C8
:102FF000891E00F0C384C91E00F0C08400F064BDC7
:1030000025238DF84830012100F069BDD9F8000072
:1030100050F8044BC9F80000002C059440F0AB8038
:103020002B994878002800F0A1804FF0FF340FF66C
:10303000003000F0BDFE201A40F06E8500F050BD5B
:1030400001236A4602A9304600F042FE002840F003
:1030500063856D1EF4D13096079D12AF75B1309E19
:1030600017F8012B02A9304600F022FE002801D4F7
:103070006D1EF5D10028309640F04E850A9D302017
:10308000002D8DF800000CDD309E01236A4602A958
:10309000304600F01DFE002840F03E856D1EF4D144
:1030A0003096059F089D75B1309E17F8012B02A937
:1030B000304600F0FDFD002801D46D1EF5D100283A
:1030C000309640F029850B9D3020002D8DF80000B2
:1030D0000CDD309E01236A4602A9304600F0F8FD5F
:1030E000002840F019856D1EF4D130960598089996
:1030F000099D471875B1309E17F8012B02A930467B
:1031000000F0D6FD002801D46D1EF5D100283096C0
:1031100040F002850C9D3020002D8DF800000CDD64
:10312000309E01236A4602A9304600F0D1FD0028F6
:1031300040F0F2846D1EF4D130969DF840004107B6
:103140007FF583AE2020002C8DF800007FF77DAE48
:10315000309D01236A4602A9284600F0B9FD0028E7
:1031600040F0DA84641EF4D130956EE60FF6C0307C
:10317000059000F0B5BC0E9D002D04D5204600F052
:1031800037FE044607E02A46204600F04DFE0028A0
:1031900014BF041B2C46089400F0A2BCD9F8001000
:1031A00051F8040BC9F8001020F00004002121F0B0
:1031B000FF3512ABCDE902450593DDE902230699FF
:1031C0003C2413B90AB90E98A0B102F00F05641E91
:1031D00030353A2D08DA12090D5542EA03721B09FF
:1031E00008BF002A02D105E02735F4E705980D193C
:1031F000A842EAD308190590C4F13C020E9808923F
:1032000082420ADABDF84010821A4FF6EF70014090
:103210000A92ADF8401000F063BC002840F16084D1
:103220009DF8400000F01400102840F059840F9BD6
:1032300007990A985B1A1B1A9A1A002A40F35084BD
:103240009AE32B99487820B14FF0FF340FF6B02065
:10325000EFE69DF84200622860D0682817D06A28FF
:103260003FD06C2806D0712847D074282CD07A28FB
:103270001DD062E0D9F8001051F8040BC9F8001015
:10328000002866D14FF0FF340FF68C20D1E6D9F834
:10329000001051F8040BC9F8001020B94FF0FF34AA
:1032A0000FF67420C5E60D99018000F019BCD9F81D
:1032B000001051F8040BC9F80010002849D14FF054
:1032C000FF340FF65420B4E6D9F8001051F8040B7F
:1032D000C9F8001000283CD14FF0FF340FF6382019
:1032E000A7E6D9F8001051F8040BC9F8001080B90E
:1032F0004FF0FF340FF620209BE6D9F8001051F86C
:10330000040BC9F8001020B94FF0FF340FF6082065
:103310008FE60D9AD317C0E90023E1E3D9F8001036
:1033200051F8040BC9F8001020B94FF0FF340FF624
:10333000E8107EE60D990170D2E3D9F8001051F83B
:10334000040BC9F8001020B94FF0FF340FF6C81075
:103350006FE60D990160C3E3D9F80020D21D22F079
:103360000702C9F80020D2E900010832C9F800209C
:10337000CDE90201C80F02D007982D210AE0BDF85F
:103380004000810702D507982B2103E0C00705D52F
:103390000798202112AA1154401C079012A80799DF
:1033A000DDE9024543184BF020006128059321AE6A
:1033B0000BD00E98002802D506200E9005E001BF24
:1033C0004BF02000672801210E91DDE90201480041
:1033D0004015401C0A460DD109030BD0ABF1610723
:1033E00003201A2F089002D20FF648110DE00FF6B5
:1033F00048110AE070B912030CD1ABF16107032048
:103400001A2F08901CD30FF638110322184600F02B
:1034100037FD65E3DDE902016A4600F085FDCDE98F
:1034200002014BF02000612811D105983021017074
:10343000821C0592BBF1610F0CBF7821582102E07C
:103440000FF6F801E1E741700798801C0790DDE96D
:10345000020120F0000231F0004308BF002A02D12F
:103460000025002445E14BF02008B8F1610F40F041
:1034700095800E98002847BF21210191401C0190A2
:10348000019F7F1C2046294600220023DDE90245DA
:1034900000F082FD38BF85F0004500998DF884204A
:1034A000091F002F00910DF1850034DD06462046EE
:1034B00029460022002300F089FD2BD21C2200F0B7
:1034C0009FFD04460D4600F01DFEFF1F002F8046A5
:1034D00009DD00F01EFE02460B462046294600F09C
:1034E0001FFE04460D46F01D0721B8F1000F0CDD4C
:1034F000491E5EBF08F00F0200F8012D4FEA2818A0
:10350000F3D502E0002200F8012D491EFAD5C61DB0
:10351000002FCCDC30460DF18501401A01990DF1E8
:10352000850605468842C8BF0D46002D2FD485422A
:1035300006DA0DF18500415D0829A8BF0F2000DAE9
:103540000020294621AA0A4400E06D1E12F8013924
:10355000491E8342F9D00F2804D10DF18500425C49
:10356000521C4254002904D50098001D21AE6D1C48
:103570000090681E0BD431180A783032D3B23A2B3F
:10358000A4BF5A443A3A401E01F80129F4D50E98D6
:10359000002840F1AD80691E0E91A9E00099DFF886
:1035A000002747F29750414391FBF2F2009225F039
:1035B0000045C2F10702002A04DD2046294600F03A
:1035C0004BFB0BE052420020DFF8D81600F044FB22
:1035D00002460B462046294600F0ABFD04460D4648
:1035E000B8F1660F06BF009F0A3706270E983F18EE
:1035F000142FC8BF142730208DF884000DF18500EA
:1036000000E03046002F35DD06462046294600F012
:1036100099FD01460A4606F1080304200A26B2FB7A
:10362000F6F606EB860EA2EB4E02303203F8012CC2
:103630000A22B6FBF2F202EB820EA6EB4E06303601
:10364000401E03F8026DE9D1083F002F03F1080680
:10365000D7DD084600F07DFD02460B462046294690
:1036600000F05EFD0022DFF8403600F079FD0446F0
:103670000D46CAE70DF18501401A0DF1850604E0FB
:103680000099491E401E0091761C31783029F7D0F0
:10369000B8F1660F02D10099491C04E0B8F1650F3A
:1036A0000CBF012100210E9D4D19A842B8BF451E37
:1036B000002D1DD4854204DA705D3428C8BF39203E
:1036C00000DC30202946721E531800E06D1E13F8EE
:1036D0000149491E8442F9D0392802D1705C401C4E
:1036E0007054002904D50098401C16466D1C0090AB
:1036F000009C00F03FFD406A0778DDF8388028B272
:10370000002802DC01250FF23C664BF02000662801
:1037100008BF641C16D0672846D120B210F1040FF0
:1037200048DB404546DA9DF84000641C010703D49D
:1037300028B24045D8BF804620B2B8EB000848BF49
:103740004FF000080FFA84FBBBF1000F00F3B580C7
:103750000898411C0891302205990A54B8F1000FCD
:1037600003DC9DF84000010704D50898411C08912E
:1037700005990F5418EB0B0FB8BFC8F1000424B221
:103780006042A0442AB20B909045B8BF4546059BC5
:1037900008982DB209952A463146184400F070FB6E
:1037A000A8EB05000C90D2E0BBF1610F17D14FF0F0
:1037B000700B19E028B2404504DA9DF840100A0762
:1037C00058BF8046B8F1010848BF4FF00008BBF170
:1037D000670F14BF4FF0450B4FF0650B04E0BBF1D2
:1037E000410F08BF4FF0500B0898411C0891B8F1E9
:1037F000000F059916F8012B0A5403DC9DF84000D0
:1038000001071AD50898411C0891B8F1000F0599D5
:103810000F5412DD6D1E28B28045B8BF454605988D
:10382000089B2AB23146184400F02AFB08992DB2B1
:1038300069180891A8EB05000B90059808990844B1
:1038400021B2002980F800B003D42B224270821CE0
:1038500004E02D2242700C46821C644200212CABF5
:1038600020460AE004460A2094FBF0F000EB8005B5
:10387000A4EB450403F8014B491C00B20028F1DC1D
:10388000012906DC4BF02000652804BF302002F837
:10389000010B00292CAB08D1302002F8010B06E007
:1038A000491E585C303002F8010B0029F8DC0599FC
:1038B00008980844121A099249E028B221B28842B5
:1038C0001CDA0598089B2AB23146184400F0D8FA51
:1038D00008992DB269180891ABEB0500B8F1000FFB
:1038E0000B9003DC9DF84000020704D5059847546F
:1038F0000999491C0991CDF8308028E00598089B6A
:1039000022B23146184400F0BBFA08982D1B5844E7
:10391000B8F1000F089003DC9DF840100A0703D5AA
:10392000411C089105990F5428B28045B8BF4546FF
:103930000598089B2AB206EB0B01184400F0A0FA88
:1039400008982DB228180890A8EB05000B909DF858
:10395000400000F01400102840F0C280079A089937
:103960000B988A18099982180C988A1882180F984F
:10397000824280F2B580821A0A92B1E09DF842003C
:10398000622808D068280ED06A2814D06C281FD06E
:10399000712810D01CE0D9F8001051F8040BC9F8B8
:1039A0000010C0B21AE0D9F8001051F8040BC9F8A1
:1039B000001080B212E0D9F80020D21D22F00702D8
:1039C000C9F80020D2E900010832C9F8002006E059
:1039D000D9F8001051F8040BC9F800100021CDE906
:1039E00002019DF8400001075AD5DDE90223002BB2
:1039F00008BF002A54D04BF02000782850D10798F7
:103A000012A930220A54401C431C079301F800B04D
:103A100046E09DF84200622808D068280ED06A2847
:103A200014D06C281FD0712810D01CE0D9F80010D9
:103A300051F8040BC9F8001040B21AE0D9F8001090
:103A400051F8040BC9F8001000B212E0D9F80020B8
:103A5000D21D22F00702C9F80020D2E90001083285
:103A6000C9F8002006E0D9F8001051F8040BC9F895
:103A70000010C117CDE90201002902D507982D21B8
:103A80000AE0BDF84000810702D507982B2103E02A
:103A9000C00705D50798202112AA1154401C079091
:103AA00012A807990144059102A8594600F04EF862
:103AB00016E001200790D9F8000050F8041BC9F85F
:103AC00000008DF848100BE025210122BBF1000F0A
:103AD0008DF84810079203D08DF849B00221079164
:103AE0000F9A07980A990C9C121A0898521A0B9967
:103AF000121A0998521A121A9DF84000141B410715
:103B00003FF5AAAA2020002C8DF800007FF7A4AA78
:103B1000309E2546FFF794BA4FF0FF3031B0BDE834
:103B2000F08F0000CBCCCC0C686A6C747A4C00002F
:103B30007072696E74665F733A20626164202573E7
:103B400020617267756D656E740000002DE9FC439D
:103B500004466F29256908BF082605D041F02000DA
:103B6000782814BF0A261026D4E900233C27904663
:103B70009946642918BF692905D1002B03D5D8F1CE
:103B8000000869EB4909B9F1000F08BFB8F1000F4F
:103B90000CD1206B50B9082E3AD194F838000107A7
:103BA00036D530203B2785F83B0031E08DF80010FA
:103BB000404649463246F31700F0E0FA3032D0B2C0
:103BC0007F1E3A2801970EDAEA55404649463246AA
:103BD000F31700F0D3FA80465FEA010908BFB8F195
:103BE000000F05D108E09DF800001218513AEBE7EC
:103BF000E068E9198842DBD3082E09D194F838002F
:103C0000010705D5E85D302802D07F1E3020E85539
:103C1000C7F13C02A261E919E160206B824208DA37
:103C2000821A22624FF6EF70218F01402187BDE892
:103C3000F38300280ED594F8380000F01400102803
:103C400008D1636B6169206A5B1A1B1A9A1A002AF1
:103C5000C8BF2262BDE8F3832DE9D04306460F4674
:103C600014464FF00008DFF8449012E0E00707D553
:103C700042464B463046394600F072FA06460F4639
:103C80004046494642464B4600F06AFA6410804678
:103C90008946002CEAD130463946BDE8D083000081
:103CA000A08601000000F03F84D797410000244027
:103CB00010B503460C461146A0689847A06020B195
:103CC000E06A401CE062002010BD4FF0FF3010BDE4
:103CD000F8B505460E4617461C4600205CB117F89D
:103CE000011BB068A847B06030B1F06A401CF062B8
:103CF0000020641EF3D1F2BD4FF0FF30F2BD000092
:103D00007072696E74665F733A20256E2064697301
:103D1000616C6C6F776564007072696E74663A20CE
:103D200062616420256E20617267756D656E740036
:103D3000000000006E616E004E414E00696E66002C
:103D4000494E4600300030B5016884684218416829
:103D500002EB5103C90703D54C4401E0491C08D1CB
:103D60009A4218BF12F9011B01D10C3030BD12F874
:103D7000015B002904F8015BF0D4491EF7D5EFE799
:103D8000C9B202788A421AB11CBF10F8012FF9E7B4
:103D900018BF002070478268521C8260426832B1AE
:103DA0000268531C036011704168491E41607047EE
:103DB00080B500B906A005490B681BB1222200217D
:103DC000984701E000F0F2FA222002BD88040024A6
:103DD000636F6E73747261696E742068616E646C77
:103DE00065723A20626164206D6573736167650076
:103DF00000F10103810704D010F8011B820781B193
:103E0000FAD10268A2F10131914311F0803104BF6F
:103E100050F8042FF6E709BAB1FA81F100EBD100AE
:103E2000401CC01A70472E00C9B2830706D0521E2C
:103E300022D310F8013B9942F7D11FE0083A13D37F
:103E400002F1040241EA012141EA014150F8043B38
:103E5000121F21BF4B40A3F1013C2CEA030C1CF0C4
:103E6000803FF3D0C9B2001F083210F8013B521E48
:103E700028BF91EA030FF8D818BF0120401E7047F1
:103E800062B38B0708D0521E11F8013B00F8013BCA
:103E900000F024808B07F6D1830740F0208000BF1C
:103EA000103A07D330B4B1E83810103AA0E838100F
:103EB000F9D230BC530724BFB1E80810A0E80810BD
:103EC00044BF51F8043B40F8043BD20724BF31F80B
:103ED000022B20F8022B44BF0B7803707047121F8F
:103EE00017D35B0009D151F8043B20F8023B1B0CAF
:103EF000121F20F8023BF6D20BE051F8043B00F809
:103F0000013B1B0A20F8023B1B0C121F00F8013B6F
:103F1000F3D238BF121D521E24BF11F8013B00F826
:103F2000013BF8D87047000010B5144600F002F8C5
:103F3000226010BDC1F30A5343B14A0012F5001FBD
:103F400028D2A3F2FE32A1EB0251704750EA410C95
:103F500020D001F0004C31EA0C01B1FA81F204BF2B
:103F6000B0FA80F3D2180B3AB2F120032CBF00FA5A
:103F700003F1914041EA0C013EBFC2F1200C20FA4E
:103F80000CF319439040524240F2FD33D21A01EB38
:103F9000035170470022704741EA030C50EA4C0C71
:103FA00052EA0C0C4FF4001C09D307D01CEB410F54
:103FB0009CBF1CEB430F8B4208BF824270471CEB37
:103FC000430FFBD8994208BF9042704741EA030C67
:103FD00050EA4C0C52EA0C0C4FF4001C09D307D0E9
:103FE0001CEB410F9CBF1CEB430F994208BF904252
:103FF00070471CEB410FFBD88B4208BF82427047D1
:1040000041EC100B104600B500F004F851EC100B19
:1040100000BD0000020030EE101B40F2FF7C37D4E0
:104020001CEA115313D063456BD09B18634504D22F
:1040300001EB025120EE101B704701F0004141EAF4
:104040000C51002041EC100BAFF30080704710EED4
:10405000100B50EA410054D0B2F57F7F08D202EB3A
:104060005C010905002041EC110B20EE010B7047AB
:104070004FF0FE41002341EC113B20EE010BB2F565
:104080007E7230EE101B4FEA410342EB5353CDE7F3
:1040900052421CEA115316D0634532D09A4204D2E0
:1040A000A1EB025120EE101B70475B1ED21AA1EB50
:1040B000035120EE101B372A0CD3002001F00041E1
:1040C00041EC100BC0E710EE100B50EA410018D085
:1040D000372AF2D2C2EB5C021105002041EC110B31
:1040E000F1EE100A20F01F0121F4F851E1EE101A50
:1040F00020EE010BF1EE101AE1EE100A11F0080F9C
:10410000A2D1704741EC100BBDEEC00B10EE100AAF
:10411000704700EE100AB8EEC00B51EC100B704760
:1041200041EC100B43EC112B30EE410B51EC100B1A
:10413000704741EC100B43EC112B80EE010B51EC5E
:10414000100B704741EC100BBCEEC00B10EE100AC8
:10415000704700EE100AB8EE400B51EC100B7047A0
:1041600041EC100B43EC112B20EE010B51EC100B2A
:10417000704700000048704748010024BBBBE1B114
:10418000B2F5803F80F07E80022A1ED98C46B1FBBA
:10419000F2F102FB11C31B0443EA1043B3FBF2FC30
:1041A00002FB1C3380B240EA0343B3FBF2F002FB94
:1041B000103240EA0C4000237047022A05D9844699
:1041C000B0FBF2F002FB10C270474AB105D100F01B
:1041D000010249085FEA300070470022002370475F
:1041E00000F0E8B80B000200002100207047904268
:1041F00071EB030CF6D3B3F5803F2FD2F0B5B3FAD1
:1042000083F7B1FA81F4A7F10F0E3D1B5340CEF1B5
:10421000200602FA0EF2F3415340B5F10F0746D8DB
:104220000F3C2C444140C4F12006A040F1414140E4
:10423000B1FBF3F603FB1611A2FB0645001BA941D7
:1042400002D2761E8018594180EA010221FA0EF34B
:1042500062FA0EF200215A403046F0BD30B4B1FB94
:10426000F3FC03FB1C11A2FB0C45001BA94103D26C
:10427000ACF1010C8018594130BC02460B46604637
:1042800000217047B2F1807F65D3F0B5B2FA82F7B2
:10429000B1FA81F4C7F10F063D1B22FA06F307F1CC
:1042A000110EF24120355A40B5F10F07B8D94140FF
:1042B000C4F12006A040F1414140B1FBF3FC03FBF7
:1042C0001C11A2FB0C45001BA94103D2BCF1010C3F
:1042D000801859410F2F12D30F3FC90341EA5041B3
:1042E000B1FBF3F603FB1611A2FB0645D4EBC0307D
:1042F000A94102D2761E8018594146EACC3C07B348
:104300004140C7F12006B840F1414140B1FBF3F60E
:1043100003FB1611A2FB0645001BA94102D2761E23
:104320008018594180EA010221FA0EF3C7F12004F6
:1043300062FA0EF20CFA07F05A402CFA04F13043FC
:10434000F0BD80EA010221FA0EF3002162FA0EF2BA
:1043500060465A40F0BD8C46B1FBF2F102FB11C33E
:104360001B0243EA1063B3FBF2FC02FB1C331B028B
:104370004CEA002043EA1063B3FBF2FC02FB1C335F
:104380001B024CEA002043EA1063B3FBF2FC02FB81
:104390001C331B024CEA002043EA1063B3FBF2FC1F
:1043A00002FB1C324CEA002000237047012000F081
:1043B00003B800007047000080B5AFF30080024AE8
:1043C00011001820ABBEFBE726000200FEB504007A
:1043D00000276846DFF88019D1E90023C0E90023EF
:1043E0000020060068463900C9B2405C84F85C00D1
:1043F0007F1C14F15C020021200000F07DFE0028EB
:1044000002D00C2005000BE0DFF8F41B200000F0C8
:104410007FFC05002800C0B2002801D00120060062
:10442000300040B2012803D13800C0B20528D7D3EC
:104430002800C0B2FEBD2DE9F84F050000265FF050
:1044400008080020C5F88C005FF078095FF0000ACA
:10445000DFF8B07B3C0052464946200001F04CFAA0
:1044600000242000C0B2DFF8981B8979491C8842DB
:104470001FD25FF00C092000C0B209FB00F007EB6F
:1044800000024146280000F069FC06003000C0B27E
:10449000002874D1D5F88C102000C0B209FB00F9B7
:1044A00057F809000143C5F88C1018F10808641C7E
:1044B000D7E75FF000095FF00C0A4846C0B20AFB7C
:1044C00000F0385800285AD000244846C0B20AFBF1
:1044D00000F0384490F808B04846C0B20AFB00F03B
:1044E000385808280AD0402814D080281AD0B0F5AF
:1044F000007F13D0B0F5805F18D01BE0DFF8080B09
:104500004946C9B20AFB01F13944097A0160001D2C
:1045100004000FE0DFF8F40A04000BE0DFF8F00A13
:10452000040007E0DFF8EC0A040003E0DFF8E80A23
:104530000400FFE7002C10D05FEA8B0322004846FE
:10454000C0B20AFB00F038444168280000F086FF42
:10455000002802D00B20060011E04846C0B20AFB3A
:1045600000FA57F80A00082806D1DFF89C0A006C08
:10457000C0F30520C5F8900019F101099BE7300050
:10458000C0B2BDE8F28F2DE9F047040006250626EB
:104590005FF0080800275FF000094846C0B2DFF866
:1045A000601A8979491C884230D2DFF858AA5246ED
:1045B0004146200000F0D2FB05002800C0B20028D0
:1045C00016D1DAF80000082812D19AF80800830002
:1045D000DFF8482ADAF80410200000F03FFF002836
:1045E00002D00B20050003E0002005000120070099
:1045F0002800C0B2002803D13800C0B2012800D181
:1046000004E018F1080819F10109C6E72800C0B252
:10461000002803D13800C0B2002802D10B200500C9
:1046200050E0DFF8E419086CC0F30520002802D13F
:104630000020060022E0086CC0F30020002802D011
:10464000012006001AE0086C000A800702D502204B
:10465000060013E0086C000A400702D5032006009C
:104660000CE0086C000A000702D50420060005E0F3
:10467000086C000AC00601D505200600086C000A77
:10468000800602D50C2005001CE03000C0B20028D6
:1046900005D0401E032810D9001F01D010E011E002
:1046A000002300226621200000F0C9FF0023002221
:1046B0009921200000F0C3FF04E00C20050001E078
:1046C000012005002800C0B2BDE8F0872DE9F843BD
:1046D00084B004000025002600208DF8080094F81E
:1046E0008C00000702D406200500F7E294F88C0045
:1046F000400606D5DFF810797868C0F341400028FD
:1047000002D107200500E9E2B868002808D4B8689B
:10471000401CB0FA80F0D0F11F0084F8550002E090
:10472000B86884F8550094F85500C01E84F8550008
:1047300094F85500401E8DF809000DF1090205217D
:10474000200000F0D9FC5FF00108F86AC0F3031004
:1047500018FA00F0A065386A84F87000386A000A18
:1047600084F87100386A000C84F87200386A000E10
:1047700084F87300786A84F87400786A000A84F810
:104780007500786A000C84F87600786A000E84F868
:10479000770094F87100002811D097F8281011F0D4
:1047A0000F01B86AC0F30410401C4143DFF87008E1
:1047B000BA6AC2F3412230F812004143A16794F86B
:1047C0007300002811D097F8281011F00F01B86A73
:1047D000C0F3C420401C4143DFF84408BA6AC2F366
:1047E000014230F812004143E16794F87500002857
:1047F00012D097F8281011F00F01B86AC0F3844066
:10480000401C4143DFF81808BA6AC2F3C15230F8BD
:1048100012004143C4F8801094F87700002811D0AA
:1048200097F8281011F00F01B86AC0F34460401CDB
:104830004143DFF8EC07BA6A920F30F812004143A7
:10484000C4F8841097F8281011F00F01F86AC0F32B
:104850000460401C4143DFF8CC07FA6AC2F341729E
:1048600050F822004143C4F88810052084F86900FC
:10487000052084F864007868C0F30010002803D095
:10488000502084F8680002E0062084F8680097F859
:104890004000C00703D5062084F8680023E097F89D
:1048A0004000800703D5062084F868001BE097F8D5
:1048B0004000400703D5502084F8680013E097F8C3
:1048C000400010F00B0F03D0502084F868000AE07D
:1048D00097F84000C00603D5062084F8680002E07F
:1048E00009200500FAE1D4F88C00800548D5DFF8EE
:1048F00020170869C00F00281ED00869000A84F834
:104900006400C87C10F0070084F865000869800F17
:1049100010F0010084F866000869C0F300700028F8
:104920000AD00869C00E10F0010084F86700C87C46
:1049300010F0070084F865004869C00F002845D0D2
:104940004869000A84F86900C87D10F0070084F8FF
:104950006A004869800F10F0010084F86B00086954
:10496000C0F30070002831D04869C00E10F001007B
:1049700084F86C00C87D10F0070084F86A0025E018
:10498000B86BC0F38000002809D0052084F86400CB
:10499000002084F86500002084F8660010E0B86B01
:1049A0008008800709D5702084F86900072084F802
:1049B0006A00002084F86B0002E0082005008DE109
:1049C000002084F86500002084F86600022084F846
:1049D0006E00D4F88C00C0045CD594F85400032811
:1049E00058D194F85C00052802D1012006002CE083
:1049F000200000F05BFA002827D1012006000520E6
:104A000084F85C0014F15C020021200000F074FBCB
:104A1000002802D00B20050060E1DFF8E49599F84A
:104A20000700FD2806D11420039003AA01212000CD
:104A300000F062FB99F80700FE2806D108200390D9
:104A400003AA0121200000F057FB94F88C00000716
:104A500016D53868112813D3B86C400F10F0030036
:104A6000002802D0012804D007E001208DF80800BA
:104A700006E000208DF8080002E00C2005002DE182
:104A800002AA0421200000F037FB002802D00B20EE
:104A9000050023E194F88C00400640F1C580300009
:104AA000C0B200286BD1386CC0F30060002814D06D
:104AB00000230022B721200000F0C1FD002802D011
:104AC0000B2005000AE100220221200000F014FB67
:104AD00000284AD00B20050000E1386C000E80074A
:104AE00038D50023002294F86810200000F0A7FDBC
:104AF000002802D00B200500F0E094F86B0000289D
:104B000001D1012300E000234FF47A70019094F862
:104B10006A0018FA00F85FFA88F8CDF8008094F877
:104B20006A008340DBB294F86C2094F8691020008E
:104B300000F0C8FD002802D00B200500CEE00023C5
:104B40000022B721200000F07AFD00280DD00B20B4
:104B50000500C3E0386C000E400606D4386C000E29
:104B6000800602D40C200500B8E0002202212000BB
:104B700000F0C2FA002802D00B200500AEE094F845
:104B8000540003281FD194F85C0000281BD1DFF8E3
:104B90007C04006810F09070B0F1907F13D1042075
:104BA00084F85C0014F15C020021200000F0A4FAFB
:104BB000002802D00B20050090E0CC2084F86E0085
:104BC0008E2084F86D0094F85C00052803D094F8DA
:104BD0005C00002817D1DFF834140868C0F3801097
:104BE000002802D0122084F86D000878C00702D592
:104BF000132084F86E000868C0F34000002802D03B
:104C00000C2084F86E00DFF80404416884F8711009
:104C10004168090A84F873104168090C84F875101A
:104C20004068000E84F8770094F88C0000064DD59B
:104C300094F85C00052849D1DFF8D883D8F8000043
:104C4000C0F30720002804D0D8F80000000A84F838
:104C50006E00386D000F00F046F807006B463A0012
:104C6000216E200000F0EEF90098DFF8BC138842B6
:104C700005D3D8F80C00C0F3C410039021E0DFF88E
:104C8000AC030099814209D30099DFF8A423914233
:104C900004D2D8F81000C00E039012E00099DFF89B
:104CA0009423914208D30099814205D2D8F810008C
:104CB000C0F34440039004E0D8F81000C0F3C410DF
:104CC000039003AA0121200000F016FA94F85C007A
:104CD000002802D0052801D100E0FFE72800C0B27B
:104CE00005B0BDE8F08318B587B004006846DFF86A
:104CF00048131C22FFF7D4F80A2C06D2684630F875
:104D00001400DFF83813484300E0002008B010BD5D
:104D10002DE9F84304000D00002608275FF0AA08DB
:104D2000A94642463900484600F0E6FD08232A001D
:104D30000021200000F092FB002802D00320060092
:104D400005E02868BE49884201D0042006003000F2
:104D5000C0B2BDE8F2830000848400082DE9FC4164
:104D600004000D001600002708210022E8464046F6
:104D700000F0C2FD08236A462900200000F06EFB07
:104D8000002802D0032007008CE0002030609DF84E
:104D9000030030729DF806009DF80510090251EAE3
:104DA00000419DF80400014371609DF80700002850
:104DB0000DD09DF80700802809D29DF80700C00794
:104DC00002D5012030606DE0022030606AE09DF87D
:104DD0000000C00701D4042030609DF80700FF28C0
:104DE00060D19DF8000000281CD0032829D0052898
:104DF0002DD006282ED0092838D00A283AD00C28E1
:104E000040D00F284AD0812818D084281CD0872869
:104E100024D0882826D08B2830D08D2836D08E28D4
:104E200038D03FE0082030609DF80300102801D200
:104E3000102001E09DF80300307233E01020306054
:104E400030E0202030602DE0402030602AE08020DB
:104E5000306027E04FF48070306023E04FF4007042
:104E600030601FE04FF4806030601BE04FF4006062
:104E7000306017E04FF48050306013E04FF4005082
:104E800030600FE04FF4804030600BE04FF40040A2
:104E9000306007E05FF48030306003E05FF40030A2
:104EA0003060FFE73800C0B2BDE8F6817CB5040091
:104EB0000025594E3068000E002824D03068000CC0
:104EC0008DF8000068463168090A417031688170C8
:104ED0007168090EC1707168090C01717168090A65
:104EE00041717168817133681B0E5B1E9BB20DF1BD
:104EF00001029DF80010200000F0A1FB002802D064
:104F00000A20050079E0B068000E002824D0B068BF
:104F1000000C8DF800006846B168090A4170B1685C
:104F20008170F168090EC170F168090C0171F168B6
:104F3000090A4171F1688171B3681B0E5B1E9BB257
:104F40000DF101029DF80010200000F078FB002810
:104F500002D00A20050050E03069000E002824D05D
:104F60003069000C8DF8000068463169090A41700B
:104F7000316981707169090EC1707169090C017123
:104F80007169090A41717169817133691B0E5B1E78
:104F90009BB20DF101029DF80010200000F04FFBC4
:104FA000002802D00A20050027E0B069000E002882
:104FB00023D0B069000C8DF800006846B169090A79
:104FC0004170B1698170F169090EC170F169090C14
:104FD0000171F169090A4171F1698171B3691B0EAF
:104FE0005B1E9BB20DF101029DF80010200000F045
:104FF00026FB002801D00A2005002800C0B276BD9B
:105000007804002418020024C00300247004002443
:10501000900200244004002420040024C40300243F
:105020008C8400082884000800C2EB0B80F5E4099A
:1050300001C2EB0B406BED077482000840420F0089
:10504000534644502DE9FE4306000F0015009846D4
:105050005FF00009002D02D10120814630E0B7FB4E
:10506000F5F00400002C08D0B7FBF4F0C8F80000FD
:10507000D8F80000854200D3641E601CB7FBF0F036
:10508000C8F80000DFF8DC0600F06AFCDFF8D8069C
:1050900000F066FC2300DFF8D4260A21684600F001
:1050A000A7FE684600F05CFC12A000F059FC3068D6
:1050B0000068C068000A0002204331680968C860BF
:1050C0004846C0B2BDE8FE8330B593B004000D0081
:1050D0006846DFF89C164C22FEF7E2FE2560201D94
:1050E00069464C22FEF7DCFE002084F850000020C8
:1050F00013B030BD0A0000002DE9F0419CB004005F
:105100000D00160000276846211D4C22FEF7C8FE40
:105110002800C0B200280CD0012800F069810228C4
:1051200000F01981042800F02581052800F03B815A
:105130007AE196F80080DFF82C0600F011FCDFF829
:10514000340600F00DFC4046C0B200280ED0022804
:1051500044D027D304287BD05CD3062800F0B3804A
:10516000C0F09280072800F0CF80EEE0DFF808065C
:1051700000F0F6FB01200390002004900020059031
:105180004FF4807007904FF4005008900020099071
:105190005FF080700E900020109008201190002089
:1051A0001290D4E0DFF8D40500F0DAFB022003907F
:1051B00000200490002005904FF4007007904FF4F9
:1051C00000500890002009905FF000700E900020C1
:1051D00010900820119000201290B8E0DFF8A00590
:1051E00000F0BEFB032003900020049000200590F7
:1051F0004FF440700790002009904FF40050089041
:105200005FF040700E900020109008201190002058
:1052100012909CE0DFF86C0500F0A2FB03200390E5
:1052200000200490002005904FF4407007904FF448
:10523000005008904FF4006009905FF040700E90AD
:105240005FF00060109008201190002012907EE026
:10525000DFF8340500F084FB012003900020049067
:10526000002005904FF4806007904FF44050089064
:10527000002009905FF080600E90002010901020B8
:1052800011900020129062E0DFF8000500F068FB4A
:105290000420039010200490082005904FF48060B3
:1052A00007904FF4405008904FF4006009905FF071
:1052B00080600E905FF000601090142011905FF0FD
:1052C0000050129043E0DFF8C80400F049FB0420CE
:1052D000039000200490002005904FF48060079018
:1052E0004FF4405008904FF40060099000200B905C
:1052F0005FF080600E905FF0006010900A201190C7
:105300005FF00050129022E0DFF8880400F028FBE4
:105310000420039000200490002005904FF480604A
:1053200007904FF4405008904FF40060099000201F
:105330000B905FF0A0600E905FF0006010900A206C
:1053400011905FF00050129001E00120070042A090
:1053500000F006FB75E0DFF80C0400F001FBDFF85D
:10536000380400F0FDFA3CA000F0FAFA4FF4405087
:10537000089066E0DFF8EC0300F0F2FADFF81C04B6
:1053800000F0EEFA3378DFF8E4230A2119A800F0E0
:105390002FFD19A800F0E4FA2FA000F0E1FA307810
:1053A00084F850004DE096F80080DFF8B80300F074
:1053B000D7FADFF8EC0300F0D3FA4346DBB2DFF8AC
:1053C000AC230A2116A800F013FD16A800F0C8FAB5
:1053D00021A000F0C5FA20680068806830F4F81059
:1053E0004146C9B250EA014021680968886028E056
:1053F00096F80080DFF86C0300F0B2FADFF8A4033F
:1054000000F0AEFA4346DBB2DFF860230A2113A8AE
:1054100000F0EEFC13A800F0A3FA0FA000F0A0FA31
:105420004046C0B211900CE0DFF8380300F098FA63
:10543000DFF8740300F094FA07A000F091FA01205D
:105440000700201D69464C22FEF72AFD3800C0B235
:105450001CB0BDE8F08100000A0000002DE9F04317
:1054600093B005000E0014001F006846291D4C2251
:10547000FEF716FD0498002802D15A20029002E09F
:1054800045F6A520029006960F9741F288394A46C4
:105490006946286800F080FD80464046C0B200287A
:1054A00007D1002C05D04A462100286800F055FE9F
:1054B00080464046C0B2002802D0286800F07BFF3A
:1054C0004046C0B213B0BDE8F0832DE9F84193B077
:1054D00005000C0016006846291D4C22FEF7E0FC72
:1054E0009F22049995F8500000F0EDF902900F9674
:1054F0000398012807D100201190002007905FF049
:1055000080700E9005E0002006900420119000208D
:10551000109041F2883842466946286800F03CFD08
:1055200007003800C0B2002807D1002C05D0424641
:105530002100286800F011FE07003800C0B20028E2
:1055400002D0286800F037FF3800C0B214B0BDE8C0
:10555000F0812DE9F84793B004000D0016001F00FC
:10556000DDF870806846211D4C22FEF799FC2A0068
:10557000D2B2049994F8500000F0A5F90290069672
:10558000CDF83C8041F2883A52466946206800F0E6
:1055900003FD81464846C0B2002808D15246390072
:1055A000206800F0DAFD81464846C0B2002848462F
:1055B000C0B2002802D0206800F0FDFE4846C0B20C
:1055C00014B0BDE8F0872DE9F84793B004000D0052
:1055D00016001F00DDF870806846211D4C22FEF782
:1055E0005FFC2A00D2B2049994F8500000F06BF9E5
:1055F00002900696CDF83C800020119041F2883A46
:1056000052466946206800F0C7FC81464846C0B251
:10561000002808D152463900206800F045FD814637
:105620004846C0B200284846C0B2002802D02068D0
:1056300000F0C1FE4846C0B214B0BDE8F0872DE9C5
:10564000F04393B004000D0016001F006846211DB2
:105650004C22FEF725FC2A00D2B2049994F850009F
:1056600000F031F9029000200790002011903800DE
:1056700080B20F90380080B2002801D100200E9037
:1056800041F288394A466946206800F085FC804628
:105690004046C0B2002809D1380080B2002805D0A9
:1056A0004A463100206800F0FFFC80464046C0B208
:1056B000002802D0206800F07EFE4046C0B213B041
:1056C000BDE8F0832DE9F04798B005000E00170003
:1056D0009846209CDDF8849005A8291D4C22FEF7F1
:1056E000DFFB684631491422FEF7DAFB4046C0B2C0
:1056F00000902000C0B201903200D2B2099995F812
:10570000500000F0E0F80790012014904FF4405052
:105710000D900B970898012806D15FF080701390C8
:1057200000200C900020169041F2883205A92868CC
:1057300000F032FC82465046C0B2002805D14A46ED
:105740006946286800F098FD82465046C0B200289D
:1057500002D0286800F02FFE5046C0B218B0BDE855
:10576000F087000064840008708400087C840008CE
:10577000B08000086C830008A8830008B883000884
:10578000C8830008D8830008E8830008F88300086D
:105790000884000818840008F48200085882000871
:1057A000808300080C830008E881000894830008C7
:1057B000F0B593B004000D0016006846211D4C2280
:1057C000FEF76EFB032000902A00D2B2049994F8F1
:1057D000500000F078F802903000C0B2119041F211
:1057E00088326946206800F0D7FB07003800C0B255
:1057F00000283800C0B2002802D0206800F0DBFD8D
:105800003800C0B213B0F0BD2DE9F84795B00500DF
:105810000E00170098461E9C02A8291D4C22FEF778
:105820003FFB08220021684601F080F80120029029
:105830003200D2B2069995F8500000F044F8049076
:105840003800C0B2139041F2883A524602A9286843
:1058500000F0A2FB81464846C0B200281FD10220BA
:1058600002904246D2B2069995F8500000F02BF80B
:1058700004902000C0B21390524602A9286800F09C
:105880008BFB81464846C0B2002808D1002000901A
:10589000502001906946286800F055FD8146484631
:1058A000C0B2002802D0286800F085FD4846C0B28A
:1058B00016B0BDE8F08710B50400BFF34F8F206825
:1058C00000F079FD10BD10B4040010290ED11000B5
:1058D000C0B200022300DBB2002B03D1D343DBB202
:1058E000184305E01300DBB2184301E01000C0B21A
:1058F00080B210BC7047000062F30F2262F31F42B7
:10590000401810F0030308D0C91A1FD3DB0748BFA3
:1059100000F8012D28BF20F8022D130030B41446E2
:105920001546103928BF20E93C00FAD8490728BF9E
:1059300020E90C0048BF40F8042D890028BF20F85A
:10594000022D48BF00F8012D30BC7047C91818BFA0
:1059500000F8012DCB0728BF00F8012D704700008B
:1059600010B504002000FEF743FA02004FF47A73EA
:1059700092B22100DFF8840301F021F810BD38B5A0
:10598000DF490868800312D4BFF34F8FBFF36F8FD6
:105990000020DC4A1060BFF34F8FBFF36F8F0868A1
:1059A00050F400300860BFF34F8FBFF36F8F08686B
:1059B000C00325D40020D44B1860BFF34F8FD348C9
:1059C0000368C3F34E34C3F3C900020043F6E0702A
:1059D00010EA441050EA8270CD4D28601000421E3B
:1059E0000028F3D12000441E0028ECD1BFF34F8FD4
:1059F000086850F480300860BFF34F8FBFF36F8F9B
:105A000001F0B6FB00F094F900F015F800F03FF952
:105A100000F0BBF800F0BAF800F0F9F800F085F8F3
:105A200001F0C0FB00F04CF901F0D0FB002801D0E0
:105A300000F0DBF9FEE718B5AFB09C21002208ACFE
:105A40002000FFF759FF202100226C462000FFF7BD
:105A500053FF012001F08BFC002801D000F0C5F9B4
:105A6000012008905FF480300990022011900220FC
:105A700012900C2013904FF4967014900120159002
:105A800002201690022017900220189002201990F0
:105A900000201A9002201B9002201C900C201D90C8
:105AA000C8201E9002201F900220209002202190EA
:105AB0000220229002202390002024900220259092
:105AC0000220269019202790F0202890022029906B
:105AD0000A202A9002202B9002202C9002202D9048
